{
  "_format": "hh-sol-artifact-1",
  "contractName": "Pengulets",
  "sourceName": "contracts/Pengulets.sol",
  "abi": [
    {
      "anonymous": false,
      "inputs": [
        {
          "indexed": false,
          "internalType": "address",
          "name": "previousAdmin",
          "type": "address"
        },
        {
          "indexed": false,
          "internalType": "address",
          "name": "newAdmin",
          "type": "address"
        }
      ],
      "name": "AdminChanged",
      "type": "event"
    },
    {
      "anonymous": false,
      "inputs": [
        {
          "indexed": true,
          "internalType": "address",
          "name": "owner",
          "type": "address"
        },
        {
          "indexed": true,
          "internalType": "address",
          "name": "approved",
          "type": "address"
        },
        {
          "indexed": true,
          "internalType": "uint256",
          "name": "tokenId",
          "type": "uint256"
        }
      ],
      "name": "Approval",
      "type": "event"
    },
    {
      "anonymous": false,
      "inputs": [
        {
          "indexed": true,
          "internalType": "address",
          "name": "owner",
          "type": "address"
        },
        {
          "indexed": true,
          "internalType": "address",
          "name": "operator",
          "type": "address"
        },
        {
          "indexed": false,
          "internalType": "bool",
          "name": "approved",
          "type": "bool"
        }
      ],
      "name": "ApprovalForAll",
      "type": "event"
    },
    {
      "anonymous": false,
      "inputs": [
        {
          "indexed": true,
          "internalType": "address",
          "name": "beacon",
          "type": "address"
        }
      ],
      "name": "BeaconUpgraded",
      "type": "event"
    },
    {
      "anonymous": false,
      "inputs": [
        {
          "indexed": true,
          "internalType": "address",
          "name": "previousOwner",
          "type": "address"
        },
        {
          "indexed": true,
          "internalType": "address",
          "name": "newOwner",
          "type": "address"
        }
      ],
      "name": "OwnershipTransferred",
      "type": "event"
    },
    {
      "anonymous": false,
      "inputs": [
        {
          "indexed": true,
          "internalType": "address",
          "name": "from",
          "type": "address"
        },
        {
          "indexed": true,
          "internalType": "address",
          "name": "to",
          "type": "address"
        },
        {
          "indexed": true,
          "internalType": "uint256",
          "name": "tokenId",
          "type": "uint256"
        }
      ],
      "name": "Transfer",
      "type": "event"
    },
    {
      "anonymous": false,
      "inputs": [
        {
          "indexed": true,
          "internalType": "address",
          "name": "implementation",
          "type": "address"
        }
      ],
      "name": "Upgraded",
      "type": "event"
    },
    {
      "inputs": [
        {
          "internalType": "string",
          "name": "_name",
          "type": "string"
        },
        {
          "internalType": "string",
          "name": "_symbol",
          "type": "string"
        }
      ],
      "name": "__Pengulets_init",
      "outputs": [],
      "stateMutability": "nonpayable",
      "type": "function"
    },
    {
      "inputs": [
        {
          "internalType": "address",
          "name": "to",
          "type": "address"
        },
        {
          "internalType": "uint256",
          "name": "tokenId",
          "type": "uint256"
        }
      ],
      "name": "approve",
      "outputs": [],
      "stateMutability": "nonpayable",
      "type": "function"
    },
    {
      "inputs": [
        {
          "internalType": "address",
          "name": "owner",
          "type": "address"
        }
      ],
      "name": "balanceOf",
      "outputs": [
        {
          "internalType": "uint256",
          "name": "",
          "type": "uint256"
        }
      ],
      "stateMutability": "view",
      "type": "function"
    },
    {
      "inputs": [],
      "name": "baseURI",
      "outputs": [
        {
          "internalType": "string",
          "name": "",
          "type": "string"
        }
      ],
      "stateMutability": "view",
      "type": "function"
    },
    {
      "inputs": [
        {
          "internalType": "uint256",
          "name": "tokenId",
          "type": "uint256"
        }
      ],
      "name": "getApproved",
      "outputs": [
        {
          "internalType": "address",
          "name": "",
          "type": "address"
        }
      ],
      "stateMutability": "view",
      "type": "function"
    },
    {
      "inputs": [
        {
          "internalType": "address",
          "name": "owner",
          "type": "address"
        },
        {
          "internalType": "address",
          "name": "operator",
          "type": "address"
        }
      ],
      "name": "isApprovedForAll",
      "outputs": [
        {
          "internalType": "bool",
          "name": "",
          "type": "bool"
        }
      ],
      "stateMutability": "view",
      "type": "function"
    },
    {
      "inputs": [
        {
          "internalType": "address",
          "name": "_to",
          "type": "address"
        }
      ],
      "name": "mintTo",
      "outputs": [],
      "stateMutability": "nonpayable",
      "type": "function"
    },
    {
      "inputs": [],
      "name": "name",
      "outputs": [
        {
          "internalType": "string",
          "name": "",
          "type": "string"
        }
      ],
      "stateMutability": "view",
      "type": "function"
    },
    {
      "inputs": [],
      "name": "owner",
      "outputs": [
        {
          "internalType": "address",
          "name": "",
          "type": "address"
        }
      ],
      "stateMutability": "view",
      "type": "function"
    },
    {
      "inputs": [
        {
          "internalType": "uint256",
          "name": "tokenId",
          "type": "uint256"
        }
      ],
      "name": "ownerOf",
      "outputs": [
        {
          "internalType": "address",
          "name": "",
          "type": "address"
        }
      ],
      "stateMutability": "view",
      "type": "function"
    },
    {
      "inputs": [],
      "name": "renounceOwnership",
      "outputs": [],
      "stateMutability": "nonpayable",
      "type": "function"
    },
    {
      "inputs": [
        {
          "internalType": "address",
          "name": "from",
          "type": "address"
        },
        {
          "internalType": "address",
          "name": "to",
          "type": "address"
        },
        {
          "internalType": "uint256",
          "name": "tokenId",
          "type": "uint256"
        }
      ],
      "name": "safeTransferFrom",
      "outputs": [],
      "stateMutability": "nonpayable",
      "type": "function"
    },
    {
      "inputs": [
        {
          "internalType": "address",
          "name": "from",
          "type": "address"
        },
        {
          "internalType": "address",
          "name": "to",
          "type": "address"
        },
        {
          "internalType": "uint256",
          "name": "tokenId",
          "type": "uint256"
        },
        {
          "internalType": "bytes",
          "name": "_data",
          "type": "bytes"
        }
      ],
      "name": "safeTransferFrom",
      "outputs": [],
      "stateMutability": "nonpayable",
      "type": "function"
    },
    {
      "inputs": [
        {
          "internalType": "address",
          "name": "operator",
          "type": "address"
        },
        {
          "internalType": "bool",
          "name": "approved",
          "type": "bool"
        }
      ],
      "name": "setApprovalForAll",
      "outputs": [],
      "stateMutability": "nonpayable",
      "type": "function"
    },
    {
      "inputs": [
        {
          "internalType": "bytes4",
          "name": "interfaceId",
          "type": "bytes4"
        }
      ],
      "name": "supportsInterface",
      "outputs": [
        {
          "internalType": "bool",
          "name": "",
          "type": "bool"
        }
      ],
      "stateMutability": "view",
      "type": "function"
    },
    {
      "inputs": [],
      "name": "symbol",
      "outputs": [
        {
          "internalType": "string",
          "name": "",
          "type": "string"
        }
      ],
      "stateMutability": "view",
      "type": "function"
    },
    {
      "inputs": [
        {
          "internalType": "uint256",
          "name": "index",
          "type": "uint256"
        }
      ],
      "name": "tokenByIndex",
      "outputs": [
        {
          "internalType": "uint256",
          "name": "",
          "type": "uint256"
        }
      ],
      "stateMutability": "view",
      "type": "function"
    },
    {
      "inputs": [],
      "name": "tokenIds",
      "outputs": [
        {
          "internalType": "uint256",
          "name": "_value",
          "type": "uint256"
        }
      ],
      "stateMutability": "view",
      "type": "function"
    },
    {
      "inputs": [
        {
          "internalType": "address",
          "name": "owner",
          "type": "address"
        },
        {
          "internalType": "uint256",
          "name": "index",
          "type": "uint256"
        }
      ],
      "name": "tokenOfOwnerByIndex",
      "outputs": [
        {
          "internalType": "uint256",
          "name": "",
          "type": "uint256"
        }
      ],
      "stateMutability": "view",
      "type": "function"
    },
    {
      "inputs": [
        {
          "internalType": "uint256",
          "name": "tokenId",
          "type": "uint256"
        }
      ],
      "name": "tokenURI",
      "outputs": [
        {
          "internalType": "string",
          "name": "",
          "type": "string"
        }
      ],
      "stateMutability": "view",
      "type": "function"
    },
    {
      "inputs": [],
      "name": "totalSupply",
      "outputs": [
        {
          "internalType": "uint256",
          "name": "",
          "type": "uint256"
        }
      ],
      "stateMutability": "view",
      "type": "function"
    },
    {
      "inputs": [
        {
          "internalType": "address",
          "name": "from",
          "type": "address"
        },
        {
          "internalType": "address",
          "name": "to",
          "type": "address"
        },
        {
          "internalType": "uint256",
          "name": "tokenId",
          "type": "uint256"
        }
      ],
      "name": "transferFrom",
      "outputs": [],
      "stateMutability": "nonpayable",
      "type": "function"
    },
    {
      "inputs": [
        {
          "internalType": "address",
          "name": "newOwner",
          "type": "address"
        }
      ],
      "name": "transferOwnership",
      "outputs": [],
      "stateMutability": "nonpayable",
      "type": "function"
    },
    {
      "inputs": [
        {
          "internalType": "address",
          "name": "newImplementation",
          "type": "address"
        }
      ],
      "name": "upgradeTo",
      "outputs": [],
      "stateMutability": "nonpayable",
      "type": "function"
    },
    {
      "inputs": [
        {
          "internalType": "address",
          "name": "newImplementation",
          "type": "address"
        },
        {
          "internalType": "bytes",
          "name": "data",
          "type": "bytes"
        }
      ],
      "name": "upgradeToAndCall",
      "outputs": [],
      "stateMutability": "payable",
      "type": "function"
    }
  ],
  "bytecode": "0x60a06040523060601b60805234801561001757600080fd5b5060805160601c6127e261004b600039600081816107d301528181610813015281816108b701526108f701526127e26000f3fe6080604052600436106101665760003560e01c80636c0360eb116100d157806395d89b411161008a578063c87b56dd11610064578063c87b56dd14610403578063d239556214610423578063e985e9c514610443578063f2fde38b1461048c57610166565b806395d89b41146103ae578063a22cb465146103c3578063b88d4fde146103e357610166565b80636c0360eb1461030e57806370a0823114610323578063714cff5614610343578063715018a61461035b578063755edd17146103705780638da5cb5b1461039057610166565b80632f745c59116101235780632f745c591461025b5780633659cfe61461027b57806342842e0e1461029b5780634f1ef286146102bb5780634f6ccce7146102ce5780636352211e146102ee57610166565b806301ffc9a71461016b57806306fdde03146101a0578063081812fc146101c2578063095ea7b3146101fa57806318160ddd1461021c57806323b872dd1461023b575b600080fd5b34801561017757600080fd5b5061018b610186366004612328565b6104ac565b60405190151581526020015b60405180910390f35b3480156101ac57600080fd5b506101b56104bf565b6040516101979190612483565b3480156101ce57600080fd5b506101e26101dd3660046123b7565b610551565b6040516001600160a01b039091168152602001610197565b34801561020657600080fd5b5061021a6102153660046122ff565b6105eb565b005b34801561022857600080fd5b506099545b604051908152602001610197565b34801561024757600080fd5b5061021a6102563660046121d8565b610701565b34801561026757600080fd5b5061022d6102763660046122ff565b610732565b34801561028757600080fd5b5061021a61029636600461218c565b6107c8565b3480156102a757600080fd5b5061021a6102b63660046121d8565b610891565b61021a6102c93660046122b3565b6108ac565b3480156102da57600080fd5b5061022d6102e93660046123b7565b610966565b3480156102fa57600080fd5b506101e26103093660046123b7565b610a07565b34801561031a57600080fd5b506101b5610a7e565b34801561032f57600080fd5b5061022d61033e36600461218c565b610b0d565b34801561034f57600080fd5b5061015f5461022d9081565b34801561036757600080fd5b5061021a610b94565b34801561037c57600080fd5b5061021a61038b36600461218c565b610bca565b34801561039c57600080fd5b5060c9546001600160a01b03166101e2565b3480156103ba57600080fd5b506101b5610c1b565b3480156103cf57600080fd5b5061021a6103de366004612279565b610c2a565b3480156103ef57600080fd5b5061021a6103fe366004612213565b610cfc565b34801561040f57600080fd5b506101b561041e3660046123b7565b610d34565b34801561042f57600080fd5b5061021a61043e366004612360565b610e1c565b34801561044f57600080fd5b5061018b61045e3660046121a6565b6001600160a01b039182166000908152606a6020908152604080832093909416825291909152205460ff1690565b34801561049857600080fd5b5061021a6104a736600461218c565b610ebc565b60006104b782610f54565b90505b919050565b6060606580546104ce906126c3565b80601f01602080910402602001604051908101604052809291908181526020018280546104fa906126c3565b80156105475780601f1061051c57610100808354040283529160200191610547565b820191906000526020600020905b81548152906001019060200180831161052a57829003601f168201915b5050505050905090565b6000818152606760205260408120546001600160a01b03166105cf5760405162461bcd60e51b815260206004820152602c60248201527f4552433732313a20617070726f76656420717565727920666f72206e6f6e657860448201526b34b9ba32b73a103a37b5b2b760a11b60648201526084015b60405180910390fd5b506000908152606960205260409020546001600160a01b031690565b60006105f682610a07565b9050806001600160a01b0316836001600160a01b031614156106645760405162461bcd60e51b815260206004820152602160248201527f4552433732313a20617070726f76616c20746f2063757272656e74206f776e656044820152603960f91b60648201526084016105c6565b336001600160a01b03821614806106805750610680813361045e565b6106f25760405162461bcd60e51b815260206004820152603860248201527f4552433732313a20617070726f76652063616c6c6572206973206e6f74206f7760448201527f6e6572206e6f7220617070726f76656420666f7220616c6c000000000000000060648201526084016105c6565b6106fc8383610f79565b505050565b61070b3382610fe7565b6107275760405162461bcd60e51b81526004016105c690612603565b6106fc8383836110de565b600061073d83610b0d565b821061079f5760405162461bcd60e51b815260206004820152602b60248201527f455243373231456e756d657261626c653a206f776e657220696e646578206f7560448201526a74206f6620626f756e647360a81b60648201526084016105c6565b506001600160a01b03919091166000908152609760209081526040808320938352929052205490565b306001600160a01b037f00000000000000000000000000000000000000000000000000000000000000001614156108115760405162461bcd60e51b81526004016105c6906124e8565b7f00000000000000000000000000000000000000000000000000000000000000006001600160a01b0316610843611289565b6001600160a01b0316146108695760405162461bcd60e51b81526004016105c690612534565b610872816112b7565b6040805160008082526020820190925261088e918391906112e1565b50565b6106fc83838360405180602001604052806000815250610cfc565b306001600160a01b037f00000000000000000000000000000000000000000000000000000000000000001614156108f55760405162461bcd60e51b81526004016105c6906124e8565b7f00000000000000000000000000000000000000000000000000000000000000006001600160a01b0316610927611289565b6001600160a01b03161461094d5760405162461bcd60e51b81526004016105c690612534565b610956826112b7565b610962828260016112e1565b5050565b600061097160995490565b82106109d45760405162461bcd60e51b815260206004820152602c60248201527f455243373231456e756d657261626c653a20676c6f62616c20696e646578206f60448201526b7574206f6620626f756e647360a01b60648201526084016105c6565b609982815481106109f557634e487b7160e01b600052603260045260246000fd5b90600052602060002001549050919050565b6000818152606760205260408120546001600160a01b0316806104b75760405162461bcd60e51b815260206004820152602960248201527f4552433732313a206f776e657220717565727920666f72206e6f6e657869737460448201526832b73a103a37b5b2b760b91b60648201526084016105c6565b6101608054610a8c906126c3565b80601f0160208091040260200160405190810160405280929190818152602001828054610ab8906126c3565b8015610b055780601f10610ada57610100808354040283529160200191610b05565b820191906000526020600020905b815481529060010190602001808311610ae857829003601f168201915b505050505081565b60006001600160a01b038216610b785760405162461bcd60e51b815260206004820152602a60248201527f4552433732313a2062616c616e636520717565727920666f7220746865207a65604482015269726f206164647265737360b01b60648201526084016105c6565b506001600160a01b031660009081526068602052604090205490565b60c9546001600160a01b03163314610bbe5760405162461bcd60e51b81526004016105c6906125ce565b610bc8600061142c565b565b60c9546001600160a01b03163314610bf45760405162461bcd60e51b81526004016105c6906125ce565b610c0361015f80546001019055565b6000610c0f61015f5490565b9050610962828261147e565b6060606680546104ce906126c3565b6001600160a01b038216331415610c835760405162461bcd60e51b815260206004820152601960248201527f4552433732313a20617070726f766520746f2063616c6c65720000000000000060448201526064016105c6565b336000818152606a602090815260408083206001600160a01b0387168085529252909120805460ff1916841515179055906001600160a01b03167f17307eab39ab6107e8899845ad3d59bd9653f200f220920489ca2b5937696c3183604051610cf0911515815260200190565b60405180910390a35050565b610d063383610fe7565b610d225760405162461bcd60e51b81526004016105c690612603565b610d2e848484846115cc565b50505050565b6000818152606760205260409020546060906001600160a01b0316610db35760405162461bcd60e51b815260206004820152602f60248201527f4552433732314d657461646174613a2055524920717565727920666f72206e6f60448201526e3732bc34b9ba32b73a103a37b5b2b760891b60648201526084016105c6565b6000610dca60408051602081019091526000815290565b90506000815111610dea5760405180602001604052806000815250610e15565b80610df4846115ff565b604051602001610e05929190612417565b6040516020818303038152906040525b9392505050565b600054610100900460ff1680610e35575060005460ff16155b610e515760405162461bcd60e51b81526004016105c690612580565b600054610100900460ff16158015610e7c576000805460ff1961ff0019909116610100171660011790555b610e86838361171a565b610e8e611794565b610e96611820565b610e9e611890565b610ea66118f3565b80156106fc576000805461ff0019169055505050565b60c9546001600160a01b03163314610ee65760405162461bcd60e51b81526004016105c6906125ce565b6001600160a01b038116610f4b5760405162461bcd60e51b815260206004820152602660248201527f4f776e61626c653a206e6577206f776e657220697320746865207a65726f206160448201526564647265737360d01b60648201526084016105c6565b61088e8161142c565b60006001600160e01b0319821663780e9d6360e01b14806104b757506104b782611966565b600081815260696020526040902080546001600160a01b0319166001600160a01b0384169081179091558190610fae82610a07565b6001600160a01b03167f8c5be1e5ebec7d5bd14f71427d1e84f3dd0314c0f7b2291e5b200ac8c7c3b92560405160405180910390a45050565b6000818152606760205260408120546001600160a01b03166110605760405162461bcd60e51b815260206004820152602c60248201527f4552433732313a206f70657261746f7220717565727920666f72206e6f6e657860448201526b34b9ba32b73a103a37b5b2b760a11b60648201526084016105c6565b600061106b83610a07565b9050806001600160a01b0316846001600160a01b031614806110a65750836001600160a01b031661109b84610551565b6001600160a01b0316145b806110d657506001600160a01b038082166000908152606a602090815260408083209388168352929052205460ff165b949350505050565b826001600160a01b03166110f182610a07565b6001600160a01b0316146111595760405162461bcd60e51b815260206004820152602960248201527f4552433732313a207472616e73666572206f6620746f6b656e2074686174206960448201526839903737ba1037bbb760b91b60648201526084016105c6565b6001600160a01b0382166111bb5760405162461bcd60e51b8152602060048201526024808201527f4552433732313a207472616e7366657220746f20746865207a65726f206164646044820152637265737360e01b60648201526084016105c6565b6111c68383836119b6565b6111d1600082610f79565b6001600160a01b03831660009081526068602052604081208054600192906111fa908490612680565b90915550506001600160a01b0382166000908152606860205260408120805460019290611228908490612654565b909155505060008181526067602052604080822080546001600160a01b0319166001600160a01b0386811691821790925591518493918716917fddf252ad1be2c89b69c2b068fc378daa952ba7f163c4a11628f55a4df523b3ef91a4505050565b7f360894a13ba1a3210667c828492db98dca3e2076cc3735a920a3ca505d382bbc546001600160a01b031690565b60c9546001600160a01b0316331461088e5760405162461bcd60e51b81526004016105c6906125ce565b60006112eb611289565b90506112f6846119c1565b6000835111806113035750815b15611314576113128484611a66565b505b7f4910fdfa16fed3260ed0e7147f7cc6da11a60208b5b9406d12a635614ffd9143805460ff1661142557805460ff191660011781556040516001600160a01b038316602482015261139390869060440160408051601f198184030181529190526020810180516001600160e01b0316631b2ce7f360e11b179052611a66565b50805460ff191681556113a4611289565b6001600160a01b0316826001600160a01b03161461141c5760405162461bcd60e51b815260206004820152602f60248201527f45524331393637557067726164653a207570677261646520627265616b73206660448201526e75727468657220757067726164657360881b60648201526084016105c6565b61142585611b51565b5050505050565b60c980546001600160a01b038381166001600160a01b0319831681179093556040519116919082907f8be0079c531659141344cd1fd0a4f28419497f9722a3daafe3b4186f6b6457e090600090a35050565b6001600160a01b0382166114d45760405162461bcd60e51b815260206004820181905260248201527f4552433732313a206d696e7420746f20746865207a65726f206164647265737360448201526064016105c6565b6000818152606760205260409020546001600160a01b0316156115395760405162461bcd60e51b815260206004820152601c60248201527f4552433732313a20746f6b656e20616c7265616479206d696e7465640000000060448201526064016105c6565b611545600083836119b6565b6001600160a01b038216600090815260686020526040812080546001929061156e908490612654565b909155505060008181526067602052604080822080546001600160a01b0319166001600160a01b03861690811790915590518392907fddf252ad1be2c89b69c2b068fc378daa952ba7f163c4a11628f55a4df523b3ef908290a45050565b6115d78484846110de565b6115e384848484611b91565b610d2e5760405162461bcd60e51b81526004016105c690612496565b60608161162457506040805180820190915260018152600360fc1b60208201526104ba565b8160005b811561164e5780611638816126fe565b91506116479050600a8361266c565b9150611628565b60008167ffffffffffffffff81111561167757634e487b7160e01b600052604160045260246000fd5b6040519080825280601f01601f1916602001820160405280156116a1576020820181803683370190505b5090505b84156110d6576116b6600183612680565b91506116c3600a86612719565b6116ce906030612654565b60f81b8183815181106116f157634e487b7160e01b600052603260045260246000fd5b60200101906001600160f81b031916908160001a905350611713600a8661266c565b94506116a5565b600054610100900460ff1680611733575060005460ff16155b61174f5760405162461bcd60e51b81526004016105c690612580565b600054610100900460ff1615801561177a576000805460ff1961ff0019909116610100171660011790555b6117826118f3565b61178a6118f3565b610ea68383611c9e565b600054610100900460ff16806117ad575060005460ff16155b6117c95760405162461bcd60e51b81526004016105c690612580565b600054610100900460ff161580156117f4576000805460ff1961ff0019909116610100171660011790555b6117fc6118f3565b6118046118f3565b61180c6118f3565b801561088e576000805461ff001916905550565b600054610100900460ff1680611839575060005460ff16155b6118555760405162461bcd60e51b81526004016105c690612580565b600054610100900460ff16158015611880576000805460ff1961ff0019909116610100171660011790555b6118886118f3565b61180c611d3c565b600054610100900460ff16806118a9575060005460ff16155b6118c55760405162461bcd60e51b81526004016105c690612580565b600054610100900460ff161580156117fc576000805460ff1961ff0019909116610100171660011790556118045b600054610100900460ff168061190c575060005460ff16155b6119285760405162461bcd60e51b81526004016105c690612580565b600054610100900460ff1615801561180c576000805460ff1961ff001990911661010017166001179055801561088e576000805461ff001916905550565b60006001600160e01b031982166380ac58cd60e01b148061199757506001600160e01b03198216635b5e139f60e01b145b806104b757506301ffc9a760e01b6001600160e01b03198316146104b7565b6106fc838383611da5565b803b611a255760405162461bcd60e51b815260206004820152602d60248201527f455243313936373a206e657720696d706c656d656e746174696f6e206973206e60448201526c1bdd08184818dbdb9d1c9858dd609a1b60648201526084016105c6565b7f360894a13ba1a3210667c828492db98dca3e2076cc3735a920a3ca505d382bbc80546001600160a01b0319166001600160a01b0392909216919091179055565b6060823b611ac55760405162461bcd60e51b815260206004820152602660248201527f416464726573733a2064656c65676174652063616c6c20746f206e6f6e2d636f6044820152651b9d1c9858dd60d21b60648201526084016105c6565b600080846001600160a01b031684604051611ae091906123fb565b600060405180830381855af49150503d8060008114611b1b576040519150601f19603f3d011682016040523d82523d6000602084013e611b20565b606091505b5091509150611b48828260405180606001604052806027815260200161278660279139611e62565b95945050505050565b611b5a816119c1565b6040516001600160a01b038216907fbc7cd75a20ee27fd9adebab32041f755214dbc6bffa90cc0225b39da2e5c2d3b90600090a250565b60006001600160a01b0384163b15611c9357604051630a85bd0160e11b81526001600160a01b0385169063150b7a0290611bd5903390899088908890600401612446565b602060405180830381600087803b158015611bef57600080fd5b505af1925050508015611c1f575060408051601f3d908101601f19168201909252611c1c91810190612344565b60015b611c79573d808015611c4d576040519150601f19603f3d011682016040523d82523d6000602084013e611c52565b606091505b508051611c715760405162461bcd60e51b81526004016105c690612496565b805181602001fd5b6001600160e01b031916630a85bd0160e11b1490506110d6565b506001949350505050565b600054610100900460ff1680611cb7575060005460ff16155b611cd35760405162461bcd60e51b81526004016105c690612580565b600054610100900460ff16158015611cfe576000805460ff1961ff0019909116610100171660011790555b8251611d11906065906020860190612055565b508151611d25906066906020850190612055565b5080156106fc576000805461ff0019169055505050565b600054610100900460ff1680611d55575060005460ff16155b611d715760405162461bcd60e51b81526004016105c690612580565b600054610100900460ff16158015611d9c576000805460ff1961ff0019909116610100171660011790555b61180c3361142c565b6001600160a01b038316611e0057611dfb81609980546000838152609a60205260408120829055600182018355919091527f72a152ddfb8e864297c917af52ea6c1c68aead0fee1a62673fcc7e0c94979d000155565b611e23565b816001600160a01b0316836001600160a01b031614611e2357611e238382611e9b565b6001600160a01b038216611e3f57611e3a81611f38565b6106fc565b826001600160a01b0316826001600160a01b0316146106fc576106fc8282612011565b60608315611e71575081610e15565b825115611e815782518084602001fd5b8160405162461bcd60e51b81526004016105c69190612483565b60006001611ea884610b0d565b611eb29190612680565b600083815260986020526040902054909150808214611f05576001600160a01b03841660009081526097602090815260408083208584528252808320548484528184208190558352609890915290208190555b5060009182526098602090815260408084208490556001600160a01b039094168352609781528383209183525290812055565b609954600090611f4a90600190612680565b6000838152609a602052604081205460998054939450909284908110611f8057634e487b7160e01b600052603260045260246000fd5b906000526020600020015490508060998381548110611faf57634e487b7160e01b600052603260045260246000fd5b6000918252602080832090910192909255828152609a90915260408082208490558582528120556099805480611ff557634e487b7160e01b600052603160045260246000fd5b6001900381819060005260206000200160009055905550505050565b600061201c83610b0d565b6001600160a01b039093166000908152609760209081526040808320868452825280832085905593825260989052919091209190915550565b828054612061906126c3565b90600052602060002090601f01602090048101928261208357600085556120c9565b82601f1061209c57805160ff19168380011785556120c9565b828001600101855582156120c9579182015b828111156120c95782518255916020019190600101906120ae565b506120d59291506120d9565b5090565b5b808211156120d557600081556001016120da565b80356001600160a01b03811681146104ba57600080fd5b600082601f830112612115578081fd5b813567ffffffffffffffff8082111561213057612130612759565b604051601f8301601f19908116603f0116810190828211818310171561215857612158612759565b81604052838152866020858801011115612170578485fd5b8360208701602083013792830160200193909352509392505050565b60006020828403121561219d578081fd5b610e15826120ee565b600080604083850312156121b8578081fd5b6121c1836120ee565b91506121cf602084016120ee565b90509250929050565b6000806000606084860312156121ec578081fd5b6121f5846120ee565b9250612203602085016120ee565b9150604084013590509250925092565b60008060008060808587031215612228578081fd5b612231856120ee565b935061223f602086016120ee565b925060408501359150606085013567ffffffffffffffff811115612261578182fd5b61226d87828801612105565b91505092959194509250565b6000806040838503121561228b578182fd5b612294836120ee565b9150602083013580151581146122a8578182fd5b809150509250929050565b600080604083850312156122c5578182fd5b6122ce836120ee565b9150602083013567ffffffffffffffff8111156122e9578182fd5b6122f585828601612105565b9150509250929050565b60008060408385031215612311578182fd5b61231a836120ee565b946020939093013593505050565b600060208284031215612339578081fd5b8135610e158161276f565b600060208284031215612355578081fd5b8151610e158161276f565b60008060408385031215612372578182fd5b823567ffffffffffffffff80821115612389578384fd5b61239586838701612105565b935060208501359150808211156123aa578283fd5b506122f585828601612105565b6000602082840312156123c8578081fd5b5035919050565b600081518084526123e7816020860160208601612697565b601f01601f19169290920160200192915050565b6000825161240d818460208701612697565b9190910192915050565b60008351612429818460208801612697565b83519083019061243d818360208801612697565b01949350505050565b6001600160a01b0385811682528416602082015260408101839052608060608201819052600090612479908301846123cf565b9695505050505050565b600060208252610e1560208301846123cf565b60208082526032908201527f4552433732313a207472616e7366657220746f206e6f6e20455243373231526560408201527131b2b4bb32b91034b6b83632b6b2b73a32b960711b606082015260800190565b6020808252602c908201527f46756e6374696f6e206d7573742062652063616c6c6564207468726f7567682060408201526b19195b1959d85d1958d85b1b60a21b606082015260800190565b6020808252602c908201527f46756e6374696f6e206d7573742062652063616c6c6564207468726f7567682060408201526b6163746976652070726f787960a01b606082015260800190565b6020808252602e908201527f496e697469616c697a61626c653a20636f6e747261637420697320616c72656160408201526d191e481a5b9a5d1a585b1a5e995960921b606082015260800190565b6020808252818101527f4f776e61626c653a2063616c6c6572206973206e6f7420746865206f776e6572604082015260600190565b60208082526031908201527f4552433732313a207472616e736665722063616c6c6572206973206e6f74206f6040820152701ddb995c881b9bdc88185c1c1c9bdd9959607a1b606082015260800190565b600082198211156126675761266761272d565b500190565b60008261267b5761267b612743565b500490565b6000828210156126925761269261272d565b500390565b60005b838110156126b257818101518382015260200161269a565b83811115610d2e5750506000910152565b6002810460018216806126d757607f821691505b602082108114156126f857634e487b7160e01b600052602260045260246000fd5b50919050565b60006000198214156127125761271261272d565b5060010190565b60008261272857612728612743565b500690565b634e487b7160e01b600052601160045260246000fd5b634e487b7160e01b600052601260045260246000fd5b634e487b7160e01b600052604160045260246000fd5b6001600160e01b03198116811461088e57600080fdfe416464726573733a206c6f772d6c6576656c2064656c65676174652063616c6c206661696c6564a26469706673582212209ca60b68e940bc287b0b0f365691fd3b80d45180b0f2b38f537aac4a80e79eb564736f6c63430008020033",
  "linkReferences": {},
  "deployedLinkReferences": {}
}