{
  "_format": "hh-sol-artifact-1",
  "contractName": "Pengulets",
  "sourceName": "contracts/Pengulets.sol",
  "abi": [
    {
      "anonymous": false,
      "inputs": [
        {
          "indexed": false,
          "internalType": "address",
          "name": "previousAdmin",
          "type": "address"
        },
        {
          "indexed": false,
          "internalType": "address",
          "name": "newAdmin",
          "type": "address"
        }
      ],
      "name": "AdminChanged",
      "type": "event"
    },
    {
      "anonymous": false,
      "inputs": [
        {
          "indexed": true,
          "internalType": "address",
          "name": "owner",
          "type": "address"
        },
        {
          "indexed": true,
          "internalType": "address",
          "name": "approved",
          "type": "address"
        },
        {
          "indexed": true,
          "internalType": "uint256",
          "name": "tokenId",
          "type": "uint256"
        }
      ],
      "name": "Approval",
      "type": "event"
    },
    {
      "anonymous": false,
      "inputs": [
        {
          "indexed": true,
          "internalType": "address",
          "name": "owner",
          "type": "address"
        },
        {
          "indexed": true,
          "internalType": "address",
          "name": "operator",
          "type": "address"
        },
        {
          "indexed": false,
          "internalType": "bool",
          "name": "approved",
          "type": "bool"
        }
      ],
      "name": "ApprovalForAll",
      "type": "event"
    },
    {
      "anonymous": false,
      "inputs": [
        {
          "indexed": true,
          "internalType": "address",
          "name": "beacon",
          "type": "address"
        }
      ],
      "name": "BeaconUpgraded",
      "type": "event"
    },
    {
      "anonymous": false,
      "inputs": [
        {
          "indexed": true,
          "internalType": "address",
          "name": "previousOwner",
          "type": "address"
        },
        {
          "indexed": true,
          "internalType": "address",
          "name": "newOwner",
          "type": "address"
        }
      ],
      "name": "OwnershipTransferred",
      "type": "event"
    },
    {
      "anonymous": false,
      "inputs": [
        {
          "indexed": true,
          "internalType": "address",
          "name": "from",
          "type": "address"
        },
        {
          "indexed": true,
          "internalType": "address",
          "name": "to",
          "type": "address"
        },
        {
          "indexed": true,
          "internalType": "uint256",
          "name": "tokenId",
          "type": "uint256"
        }
      ],
      "name": "Transfer",
      "type": "event"
    },
    {
      "anonymous": false,
      "inputs": [
        {
          "indexed": true,
          "internalType": "address",
          "name": "implementation",
          "type": "address"
        }
      ],
      "name": "Upgraded",
      "type": "event"
    },
    {
      "inputs": [],
      "name": "MAX_PNGU",
      "outputs": [
        {
          "internalType": "uint256",
          "name": "",
          "type": "uint256"
        }
      ],
      "stateMutability": "view",
      "type": "function"
    },
    {
      "inputs": [
        {
          "internalType": "string",
          "name": "_name",
          "type": "string"
        },
        {
          "internalType": "string",
          "name": "_symbol",
          "type": "string"
        },
        {
          "internalType": "uint256",
          "name": "maxSupply",
          "type": "uint256"
        }
      ],
      "name": "__Pengulets_init",
      "outputs": [],
      "stateMutability": "nonpayable",
      "type": "function"
    },
    {
      "inputs": [
        {
          "internalType": "address",
          "name": "to",
          "type": "address"
        },
        {
          "internalType": "uint256",
          "name": "tokenId",
          "type": "uint256"
        }
      ],
      "name": "approve",
      "outputs": [],
      "stateMutability": "nonpayable",
      "type": "function"
    },
    {
      "inputs": [
        {
          "internalType": "address",
          "name": "owner",
          "type": "address"
        }
      ],
      "name": "balanceOf",
      "outputs": [
        {
          "internalType": "uint256",
          "name": "",
          "type": "uint256"
        }
      ],
      "stateMutability": "view",
      "type": "function"
    },
    {
      "inputs": [],
      "name": "baseURI",
      "outputs": [
        {
          "internalType": "string",
          "name": "",
          "type": "string"
        }
      ],
      "stateMutability": "view",
      "type": "function"
    },
    {
      "inputs": [
        {
          "internalType": "address",
          "name": "user",
          "type": "address"
        }
      ],
      "name": "cumulativeHODL",
      "outputs": [
        {
          "internalType": "uint256",
          "name": "",
          "type": "uint256"
        }
      ],
      "stateMutability": "view",
      "type": "function"
    },
    {
      "inputs": [
        {
          "internalType": "uint256",
          "name": "tokenId",
          "type": "uint256"
        }
      ],
      "name": "getApproved",
      "outputs": [
        {
          "internalType": "address",
          "name": "",
          "type": "address"
        }
      ],
      "stateMutability": "view",
      "type": "function"
    },
    {
      "inputs": [
        {
          "internalType": "address",
          "name": "owner",
          "type": "address"
        },
        {
          "internalType": "address",
          "name": "operator",
          "type": "address"
        }
      ],
      "name": "isApprovedForAll",
      "outputs": [
        {
          "internalType": "bool",
          "name": "",
          "type": "bool"
        }
      ],
      "stateMutability": "view",
      "type": "function"
    },
    {
      "inputs": [
        {
          "internalType": "uint256",
          "name": "",
          "type": "uint256"
        }
      ],
      "name": "lastTransferTimestamp",
      "outputs": [
        {
          "internalType": "uint256",
          "name": "",
          "type": "uint256"
        }
      ],
      "stateMutability": "view",
      "type": "function"
    },
    {
      "inputs": [
        {
          "internalType": "address",
          "name": "to",
          "type": "address"
        },
        {
          "internalType": "uint256",
          "name": "tokenId",
          "type": "uint256"
        }
      ],
      "name": "mint",
      "outputs": [],
      "stateMutability": "nonpayable",
      "type": "function"
    },
    {
      "inputs": [
        {
          "internalType": "address",
          "name": "to",
          "type": "address"
        }
      ],
      "name": "mintNext",
      "outputs": [],
      "stateMutability": "nonpayable",
      "type": "function"
    },
    {
      "inputs": [],
      "name": "name",
      "outputs": [
        {
          "internalType": "string",
          "name": "",
          "type": "string"
        }
      ],
      "stateMutability": "view",
      "type": "function"
    },
    {
      "inputs": [],
      "name": "owner",
      "outputs": [
        {
          "internalType": "address",
          "name": "",
          "type": "address"
        }
      ],
      "stateMutability": "view",
      "type": "function"
    },
    {
      "inputs": [
        {
          "internalType": "uint256",
          "name": "tokenId",
          "type": "uint256"
        }
      ],
      "name": "ownerOf",
      "outputs": [
        {
          "internalType": "address",
          "name": "",
          "type": "address"
        }
      ],
      "stateMutability": "view",
      "type": "function"
    },
    {
      "inputs": [],
      "name": "renounceOwnership",
      "outputs": [],
      "stateMutability": "nonpayable",
      "type": "function"
    },
    {
      "inputs": [
        {
          "internalType": "address",
          "name": "from",
          "type": "address"
        },
        {
          "internalType": "address",
          "name": "to",
          "type": "address"
        },
        {
          "internalType": "uint256",
          "name": "tokenId",
          "type": "uint256"
        }
      ],
      "name": "safeTransferFrom",
      "outputs": [],
      "stateMutability": "nonpayable",
      "type": "function"
    },
    {
      "inputs": [
        {
          "internalType": "address",
          "name": "from",
          "type": "address"
        },
        {
          "internalType": "address",
          "name": "to",
          "type": "address"
        },
        {
          "internalType": "uint256",
          "name": "tokenId",
          "type": "uint256"
        },
        {
          "internalType": "bytes",
          "name": "_data",
          "type": "bytes"
        }
      ],
      "name": "safeTransferFrom",
      "outputs": [],
      "stateMutability": "nonpayable",
      "type": "function"
    },
    {
      "inputs": [
        {
          "internalType": "address",
          "name": "operator",
          "type": "address"
        },
        {
          "internalType": "bool",
          "name": "approved",
          "type": "bool"
        }
      ],
      "name": "setApprovalForAll",
      "outputs": [],
      "stateMutability": "nonpayable",
      "type": "function"
    },
    {
      "inputs": [
        {
          "internalType": "string",
          "name": "newURI",
          "type": "string"
        }
      ],
      "name": "setBaseURI",
      "outputs": [],
      "stateMutability": "nonpayable",
      "type": "function"
    },
    {
      "inputs": [
        {
          "internalType": "bytes4",
          "name": "interfaceId",
          "type": "bytes4"
        }
      ],
      "name": "supportsInterface",
      "outputs": [
        {
          "internalType": "bool",
          "name": "",
          "type": "bool"
        }
      ],
      "stateMutability": "view",
      "type": "function"
    },
    {
      "inputs": [],
      "name": "symbol",
      "outputs": [
        {
          "internalType": "string",
          "name": "",
          "type": "string"
        }
      ],
      "stateMutability": "view",
      "type": "function"
    },
    {
      "inputs": [
        {
          "internalType": "uint256",
          "name": "index",
          "type": "uint256"
        }
      ],
      "name": "tokenByIndex",
      "outputs": [
        {
          "internalType": "uint256",
          "name": "",
          "type": "uint256"
        }
      ],
      "stateMutability": "view",
      "type": "function"
    },
    {
      "inputs": [
        {
          "internalType": "address",
          "name": "owner",
          "type": "address"
        },
        {
          "internalType": "uint256",
          "name": "index",
          "type": "uint256"
        }
      ],
      "name": "tokenOfOwnerByIndex",
      "outputs": [
        {
          "internalType": "uint256",
          "name": "",
          "type": "uint256"
        }
      ],
      "stateMutability": "view",
      "type": "function"
    },
    {
      "inputs": [
        {
          "internalType": "uint256",
          "name": "tokenId",
          "type": "uint256"
        }
      ],
      "name": "tokenURI",
      "outputs": [
        {
          "internalType": "string",
          "name": "",
          "type": "string"
        }
      ],
      "stateMutability": "view",
      "type": "function"
    },
    {
      "inputs": [],
      "name": "totalSupply",
      "outputs": [
        {
          "internalType": "uint256",
          "name": "",
          "type": "uint256"
        }
      ],
      "stateMutability": "view",
      "type": "function"
    },
    {
      "inputs": [
        {
          "internalType": "address",
          "name": "from",
          "type": "address"
        },
        {
          "internalType": "address",
          "name": "to",
          "type": "address"
        },
        {
          "internalType": "uint256",
          "name": "tokenId",
          "type": "uint256"
        }
      ],
      "name": "transferFrom",
      "outputs": [],
      "stateMutability": "nonpayable",
      "type": "function"
    },
    {
      "inputs": [
        {
          "internalType": "address",
          "name": "newOwner",
          "type": "address"
        }
      ],
      "name": "transferOwnership",
      "outputs": [],
      "stateMutability": "nonpayable",
      "type": "function"
    },
    {
      "inputs": [
        {
          "internalType": "address",
          "name": "newImplementation",
          "type": "address"
        }
      ],
      "name": "upgradeTo",
      "outputs": [],
      "stateMutability": "nonpayable",
      "type": "function"
    },
    {
      "inputs": [
        {
          "internalType": "address",
          "name": "newImplementation",
          "type": "address"
        },
        {
          "internalType": "bytes",
          "name": "data",
          "type": "bytes"
        }
      ],
      "name": "upgradeToAndCall",
      "outputs": [],
      "stateMutability": "payable",
      "type": "function"
    }
  ],
  "bytecode": "0x60a06040523060601b60805234801561001757600080fd5b5060805160601c612c2b61004b6000396000818161090a0152818161094a01528181610a220152610a620152612c2b6000f3fe6080604052600436106101c25760003560e01c80636352211e116100f75780639c52995511610095578063b88d4fde11610064578063b88d4fde146104ec578063c87b56dd1461050c578063e985e9c51461052c578063f2fde38b14610575576101c2565b80639c5299551461045e5780639d7c828b1461047e578063a22cb465146104ac578063a903894d146104cc576101c2565b8063715018a6116100d1578063715018a6146103ff5780638da5cb5b1461041457806395d89b411461043257806398908d7214610447576101c2565b80636352211e146103aa5780636c0360eb146103ca57806370a08231146103df576101c2565b80632f745c591161016457806342842e0e1161013e57806342842e0e146103375780634f1ef286146103575780634f6ccce71461036a57806355f804b31461038a576101c2565b80632f745c59146102d75780633659cfe6146102f757806340c10f1914610317576101c2565b8063081812fc116101a0578063081812fc14610240578063095ea7b31461027857806318160ddd1461029857806323b872dd146102b7576101c2565b8063016ea35a146101c757806301ffc9a7146101e957806306fdde031461021e575b600080fd5b3480156101d357600080fd5b506101e76101e2366004612505565b610595565b005b3480156101f557600080fd5b506102096102043660046126a1565b6105e8565b60405190151581526020015b60405180910390f35b34801561022a57600080fd5b506102336105fb565b60405161021591906128cc565b34801561024c57600080fd5b5061026061025b366004612776565b61068d565b6040516001600160a01b039091168152602001610215565b34801561028457600080fd5b506101e7610293366004612678565b610722565b3480156102a457600080fd5b506099545b604051908152602001610215565b3480156102c357600080fd5b506101e76102d2366004612551565b610838565b3480156102e357600080fd5b506102a96102f2366004612678565b610869565b34801561030357600080fd5b506101e7610312366004612505565b6108ff565b34801561032357600080fd5b506101e7610332366004612678565b6109c8565b34801561034357600080fd5b506101e7610352366004612551565b6109fc565b6101e761036536600461262c565b610a17565b34801561037657600080fd5b506102a9610385366004612776565b610acd565b34801561039657600080fd5b506101e76103a53660046126d9565b610b6e565b3480156103b657600080fd5b506102606103c5366004612776565b610bac565b3480156103d657600080fd5b50610233610c23565b3480156103eb57600080fd5b506102a96103fa366004612505565b610cb2565b34801561040b57600080fd5b506101e7610d39565b34801561042057600080fd5b5060c9546001600160a01b0316610260565b34801561043e57600080fd5b50610233610d6f565b34801561045357600080fd5b506102a961015f5481565b34801561046a57600080fd5b506101e761047936600461270c565b610d7e565b34801561048a57600080fd5b506102a9610499366004612776565b6101616020526000908152604090205481565b3480156104b857600080fd5b506101e76104c73660046125f2565b610e21565b3480156104d857600080fd5b506102a96104e7366004612505565b610ef3565b3480156104f857600080fd5b506101e761050736600461258c565b610f7a565b34801561051857600080fd5b50610233610527366004612776565b610fac565b34801561053857600080fd5b5061020961054736600461251f565b6001600160a01b039182166000908152606a6020908152604080832093909416825291909152205460ff1690565b34801561058157600080fd5b506101e7610590366004612505565b611089565b60c9546001600160a01b031633146105c85760405162461bcd60e51b81526004016105bf90612a17565b60405180910390fd5b60006105d360995490565b90506105e482610332836001612a9d565b5050565b60006105f382611121565b90505b919050565b60606065805461060a90612b0c565b80601f016020809104026020016040519081016040528092919081815260200182805461063690612b0c565b80156106835780601f1061065857610100808354040283529160200191610683565b820191906000526020600020905b81548152906001019060200180831161066657829003601f168201915b5050505050905090565b6000818152606760205260408120546001600160a01b03166107065760405162461bcd60e51b815260206004820152602c60248201527f4552433732313a20617070726f76656420717565727920666f72206e6f6e657860448201526b34b9ba32b73a103a37b5b2b760a11b60648201526084016105bf565b506000908152606960205260409020546001600160a01b031690565b600061072d82610bac565b9050806001600160a01b0316836001600160a01b0316141561079b5760405162461bcd60e51b815260206004820152602160248201527f4552433732313a20617070726f76616c20746f2063757272656e74206f776e656044820152603960f91b60648201526084016105bf565b336001600160a01b03821614806107b757506107b78133610547565b6108295760405162461bcd60e51b815260206004820152603860248201527f4552433732313a20617070726f76652063616c6c6572206973206e6f74206f7760448201527f6e6572206e6f7220617070726f76656420666f7220616c6c000000000000000060648201526084016105bf565b6108338383611146565b505050565b61084233826111b4565b61085e5760405162461bcd60e51b81526004016105bf90612a4c565b6108338383836112ab565b600061087483610cb2565b82106108d65760405162461bcd60e51b815260206004820152602b60248201527f455243373231456e756d657261626c653a206f776e657220696e646578206f7560448201526a74206f6620626f756e647360a81b60648201526084016105bf565b506001600160a01b03919091166000908152609760209081526040808320938352929052205490565b306001600160a01b037f00000000000000000000000000000000000000000000000000000000000000001614156109485760405162461bcd60e51b81526004016105bf90612931565b7f00000000000000000000000000000000000000000000000000000000000000006001600160a01b031661097a611456565b6001600160a01b0316146109a05760405162461bcd60e51b81526004016105bf9061297d565b6109a981611484565b604080516000808252602082019092526109c5918391906114ae565b50565b60c9546001600160a01b031633146109f25760405162461bcd60e51b81526004016105bf90612a17565b6105e482826115f9565b61083383838360405180602001604052806000815250610f7a565b306001600160a01b037f0000000000000000000000000000000000000000000000000000000000000000161415610a605760405162461bcd60e51b81526004016105bf90612931565b7f00000000000000000000000000000000000000000000000000000000000000006001600160a01b0316610a92611456565b6001600160a01b031614610ab85760405162461bcd60e51b81526004016105bf9061297d565b610ac182611484565b6105e4828260016114ae565b6000610ad860995490565b8210610b3b5760405162461bcd60e51b815260206004820152602c60248201527f455243373231456e756d657261626c653a20676c6f62616c20696e646578206f60448201526b7574206f6620626f756e647360a01b60648201526084016105bf565b60998281548110610b5c57634e487b7160e01b600052603260045260246000fd5b90600052602060002001549050919050565b60c9546001600160a01b03163314610b985760405162461bcd60e51b81526004016105bf90612a17565b80516105e4906101609060208401906123ce565b6000818152606760205260408120546001600160a01b0316806105f35760405162461bcd60e51b815260206004820152602960248201527f4552433732313a206f776e657220717565727920666f72206e6f6e657869737460448201526832b73a103a37b5b2b760b91b60648201526084016105bf565b6101608054610c3190612b0c565b80601f0160208091040260200160405190810160405280929190818152602001828054610c5d90612b0c565b8015610caa5780601f10610c7f57610100808354040283529160200191610caa565b820191906000526020600020905b815481529060010190602001808311610c8d57829003601f168201915b505050505081565b60006001600160a01b038216610d1d5760405162461bcd60e51b815260206004820152602a60248201527f4552433732313a2062616c616e636520717565727920666f7220746865207a65604482015269726f206164647265737360b01b60648201526084016105bf565b506001600160a01b031660009081526068602052604090205490565b60c9546001600160a01b03163314610d635760405162461bcd60e51b81526004016105bf90612a17565b610d6d6000611642565b565b60606066805461060a90612b0c565b600054610100900460ff1680610d97575060005460ff16155b610db35760405162461bcd60e51b81526004016105bf906129c9565b600054610100900460ff16158015610dde576000805460ff1961ff0019909116610100171660011790555b610de88484611694565b610df0611724565b610df86117b0565b610e00611820565b610e0982611887565b8015610e1b576000805461ff00191690555b50505050565b6001600160a01b038216331415610e7a5760405162461bcd60e51b815260206004820152601960248201527f4552433732313a20617070726f766520746f2063616c6c65720000000000000060448201526064016105bf565b336000818152606a602090815260408083206001600160a01b0387168085529252909120805460ff1916841515179055906001600160a01b03167f17307eab39ab6107e8899845ad3d59bd9653f200f220920489ca2b5937696c3183604051610ee7911515815260200190565b60405180910390a35050565b6001600160a01b0381166000908152610162602052604081205481610f1784610cb2565b905060005b81811015610f71576000610f308683610869565b6000818152610161602052604081205491925090610f4e9042612ac9565b9050610f5a8186612a9d565b945050508080610f6990612b47565b915050610f1c565b50909392505050565b610f8433836111b4565b610fa05760405162461bcd60e51b81526004016105bf90612a4c565b610e1b84848484611902565b6000818152606760205260409020546060906001600160a01b031661102b5760405162461bcd60e51b815260206004820152602f60248201527f4552433732314d657461646174613a2055524920717565727920666f72206e6f60448201526e3732bc34b9ba32b73a103a37b5b2b760891b60648201526084016105bf565b6000611035611935565b905060008151116110555760405180602001604052806000815250611082565b61016061106184611945565b6040516020016110729291906127f2565b6040516020818303038152906040525b9392505050565b60c9546001600160a01b031633146110b35760405162461bcd60e51b81526004016105bf90612a17565b6001600160a01b0381166111185760405162461bcd60e51b815260206004820152602660248201527f4f776e61626c653a206e6577206f776e657220697320746865207a65726f206160448201526564647265737360d01b60648201526084016105bf565b6109c581611642565b60006001600160e01b0319821663780e9d6360e01b14806105f357506105f382611a60565b600081815260696020526040902080546001600160a01b0319166001600160a01b038416908117909155819061117b82610bac565b6001600160a01b03167f8c5be1e5ebec7d5bd14f71427d1e84f3dd0314c0f7b2291e5b200ac8c7c3b92560405160405180910390a45050565b6000818152606760205260408120546001600160a01b031661122d5760405162461bcd60e51b815260206004820152602c60248201527f4552433732313a206f70657261746f7220717565727920666f72206e6f6e657860448201526b34b9ba32b73a103a37b5b2b760a11b60648201526084016105bf565b600061123883610bac565b9050806001600160a01b0316846001600160a01b031614806112735750836001600160a01b03166112688461068d565b6001600160a01b0316145b806112a357506001600160a01b038082166000908152606a602090815260408083209388168352929052205460ff165b949350505050565b826001600160a01b03166112be82610bac565b6001600160a01b0316146113265760405162461bcd60e51b815260206004820152602960248201527f4552433732313a207472616e73666572206f6620746f6b656e2074686174206960448201526839903737ba1037bbb760b91b60648201526084016105bf565b6001600160a01b0382166113885760405162461bcd60e51b8152602060048201526024808201527f4552433732313a207472616e7366657220746f20746865207a65726f206164646044820152637265737360e01b60648201526084016105bf565b611393838383611ab0565b61139e600082611146565b6001600160a01b03831660009081526068602052604081208054600192906113c7908490612ac9565b90915550506001600160a01b03821660009081526068602052604081208054600192906113f5908490612a9d565b909155505060008181526067602052604080822080546001600160a01b0319166001600160a01b0386811691821790925591518493918716917fddf252ad1be2c89b69c2b068fc378daa952ba7f163c4a11628f55a4df523b3ef91a4505050565b7f360894a13ba1a3210667c828492db98dca3e2076cc3735a920a3ca505d382bbc546001600160a01b031690565b60c9546001600160a01b031633146109c55760405162461bcd60e51b81526004016105bf90612a17565b60006114b8611456565b90506114c384611b2c565b6000835111806114d05750815b156114e1576114df8484611bd1565b505b7f4910fdfa16fed3260ed0e7147f7cc6da11a60208b5b9406d12a635614ffd9143805460ff166115f257805460ff191660011781556040516001600160a01b038316602482015261156090869060440160408051601f198184030181529190526020810180516001600160e01b0316631b2ce7f360e11b179052611bd1565b50805460ff19168155611571611456565b6001600160a01b0316826001600160a01b0316146115e95760405162461bcd60e51b815260206004820152602f60248201527f45524331393637557067726164653a207570677261646520627265616b73206660448201526e75727468657220757067726164657360881b60648201526084016105bf565b6115f285611cbc565b5050505050565b61015f5481106116385760405162461bcd60e51b815260206004820152600a6024820152694d617820737570706c7960b01b60448201526064016105bf565b6105e48282611cfc565b60c980546001600160a01b038381166001600160a01b0319831681179093556040519116919082907f8be0079c531659141344cd1fd0a4f28419497f9722a3daafe3b4186f6b6457e090600090a35050565b600054610100900460ff16806116ad575060005460ff16155b6116c95760405162461bcd60e51b81526004016105bf906129c9565b600054610100900460ff161580156116f4576000805460ff1961ff0019909116610100171660011790555b6116fc611d16565b611704611d16565b61170e8383611d89565b8015610833576000805461ff0019169055505050565b600054610100900460ff168061173d575060005460ff16155b6117595760405162461bcd60e51b81526004016105bf906129c9565b600054610100900460ff16158015611784576000805460ff1961ff0019909116610100171660011790555b61178c611d16565b611794611d16565b61179c611d16565b80156109c5576000805461ff001916905550565b600054610100900460ff16806117c9575060005460ff16155b6117e55760405162461bcd60e51b81526004016105bf906129c9565b600054610100900460ff16158015611810576000805460ff1961ff0019909116610100171660011790555b611818611d16565b61179c611e27565b600054610100900460ff1680611839575060005460ff16155b6118555760405162461bcd60e51b81526004016105bf906129c9565b600054610100900460ff1615801561178c576000805460ff1961ff001990911661010017166001179055611794611d16565b600054610100900460ff16806118a0575060005460ff16155b6118bc5760405162461bcd60e51b81526004016105bf906129c9565b600054610100900460ff161580156118e7576000805460ff1961ff0019909116610100171660011790555b61015f82905580156105e4576000805461ff00191690555050565b61190d8484846112ab565b61191984848484611e90565b610e1b5760405162461bcd60e51b81526004016105bf906128df565b6060610160805461060a90612b0c565b60608161196a57506040805180820190915260018152600360fc1b60208201526105f6565b8160005b8115611994578061197e81612b47565b915061198d9050600a83612ab5565b915061196e565b60008167ffffffffffffffff8111156119bd57634e487b7160e01b600052604160045260246000fd5b6040519080825280601f01601f1916602001820160405280156119e7576020820181803683370190505b5090505b84156112a3576119fc600183612ac9565b9150611a09600a86612b62565b611a14906030612a9d565b60f81b818381518110611a3757634e487b7160e01b600052603260045260246000fd5b60200101906001600160f81b031916908160001a905350611a59600a86612ab5565b94506119eb565b60006001600160e01b031982166380ac58cd60e01b1480611a9157506001600160e01b03198216635b5e139f60e01b145b806105f357506301ffc9a760e01b6001600160e01b03198316146105f3565b611abb838383611f9d565b60008181526101616020526040812054611ad59042612ac9565b90506001600160a01b03841615611b15576001600160a01b0384166000908152610162602052604081208054839290611b0f908490612a9d565b90915550505b506000908152610161602052604090204290555050565b803b611b905760405162461bcd60e51b815260206004820152602d60248201527f455243313936373a206e657720696d706c656d656e746174696f6e206973206e60448201526c1bdd08184818dbdb9d1c9858dd609a1b60648201526084016105bf565b7f360894a13ba1a3210667c828492db98dca3e2076cc3735a920a3ca505d382bbc80546001600160a01b0319166001600160a01b0392909216919091179055565b6060823b611c305760405162461bcd60e51b815260206004820152602660248201527f416464726573733a2064656c65676174652063616c6c20746f206e6f6e2d636f6044820152651b9d1c9858dd60d21b60648201526084016105bf565b600080846001600160a01b031684604051611c4b91906127d6565b600060405180830381855af49150503d8060008114611c86576040519150601f19603f3d011682016040523d82523d6000602084013e611c8b565b606091505b5091509150611cb38282604051806060016040528060278152602001612bcf6027913961205a565b95945050505050565b611cc581611b2c565b6040516001600160a01b038216907fbc7cd75a20ee27fd9adebab32041f755214dbc6bffa90cc0225b39da2e5c2d3b90600090a250565b6105e4828260405180602001604052806000815250612093565b600054610100900460ff1680611d2f575060005460ff16155b611d4b5760405162461bcd60e51b81526004016105bf906129c9565b600054610100900460ff1615801561179c576000805460ff1961ff00199091166101001716600117905580156109c5576000805461ff001916905550565b600054610100900460ff1680611da2575060005460ff16155b611dbe5760405162461bcd60e51b81526004016105bf906129c9565b600054610100900460ff16158015611de9576000805460ff1961ff0019909116610100171660011790555b8251611dfc9060659060208601906123ce565b508151611e109060669060208501906123ce565b508015610833576000805461ff0019169055505050565b600054610100900460ff1680611e40575060005460ff16155b611e5c5760405162461bcd60e51b81526004016105bf906129c9565b600054610100900460ff16158015611e87576000805460ff1961ff0019909116610100171660011790555b61179c33611642565b60006001600160a01b0384163b15611f9257604051630a85bd0160e11b81526001600160a01b0385169063150b7a0290611ed490339089908890889060040161288f565b602060405180830381600087803b158015611eee57600080fd5b505af1925050508015611f1e575060408051601f3d908101601f19168201909252611f1b918101906126bd565b60015b611f78573d808015611f4c576040519150601f19603f3d011682016040523d82523d6000602084013e611f51565b606091505b508051611f705760405162461bcd60e51b81526004016105bf906128df565b805181602001fd5b6001600160e01b031916630a85bd0160e11b1490506112a3565b506001949350505050565b6001600160a01b038316611ff857611ff381609980546000838152609a60205260408120829055600182018355919091527f72a152ddfb8e864297c917af52ea6c1c68aead0fee1a62673fcc7e0c94979d000155565b61201b565b816001600160a01b0316836001600160a01b03161461201b5761201b83826120c6565b6001600160a01b0382166120375761203281612163565b610833565b826001600160a01b0316826001600160a01b03161461083357610833828261223c565b60608315612069575081611082565b8251156120795782518084602001fd5b8160405162461bcd60e51b81526004016105bf91906128cc565b61209d8383612280565b6120aa6000848484611e90565b6108335760405162461bcd60e51b81526004016105bf906128df565b600060016120d384610cb2565b6120dd9190612ac9565b600083815260986020526040902054909150808214612130576001600160a01b03841660009081526097602090815260408083208584528252808320548484528184208190558352609890915290208190555b5060009182526098602090815260408084208490556001600160a01b039094168352609781528383209183525290812055565b60995460009061217590600190612ac9565b6000838152609a6020526040812054609980549394509092849081106121ab57634e487b7160e01b600052603260045260246000fd5b9060005260206000200154905080609983815481106121da57634e487b7160e01b600052603260045260246000fd5b6000918252602080832090910192909255828152609a9091526040808220849055858252812055609980548061222057634e487b7160e01b600052603160045260246000fd5b6001900381819060005260206000200160009055905550505050565b600061224783610cb2565b6001600160a01b039093166000908152609760209081526040808320868452825280832085905593825260989052919091209190915550565b6001600160a01b0382166122d65760405162461bcd60e51b815260206004820181905260248201527f4552433732313a206d696e7420746f20746865207a65726f206164647265737360448201526064016105bf565b6000818152606760205260409020546001600160a01b03161561233b5760405162461bcd60e51b815260206004820152601c60248201527f4552433732313a20746f6b656e20616c7265616479206d696e7465640000000060448201526064016105bf565b61234760008383611ab0565b6001600160a01b0382166000908152606860205260408120805460019290612370908490612a9d565b909155505060008181526067602052604080822080546001600160a01b0319166001600160a01b03861690811790915590518392907fddf252ad1be2c89b69c2b068fc378daa952ba7f163c4a11628f55a4df523b3ef908290a45050565b8280546123da90612b0c565b90600052602060002090601f0160209004810192826123fc5760008555612442565b82601f1061241557805160ff1916838001178555612442565b82800160010185558215612442579182015b82811115612442578251825591602001919060010190612427565b5061244e929150612452565b5090565b5b8082111561244e5760008155600101612453565b80356001600160a01b03811681146105f657600080fd5b600082601f83011261248e578081fd5b813567ffffffffffffffff808211156124a9576124a9612ba2565b604051601f8301601f19908116603f011681019082821181831017156124d1576124d1612ba2565b816040528381528660208588010111156124e9578485fd5b8360208701602083013792830160200193909352509392505050565b600060208284031215612516578081fd5b61108282612467565b60008060408385031215612531578081fd5b61253a83612467565b915061254860208401612467565b90509250929050565b600080600060608486031215612565578081fd5b61256e84612467565b925061257c60208501612467565b9150604084013590509250925092565b600080600080608085870312156125a1578081fd5b6125aa85612467565b93506125b860208601612467565b925060408501359150606085013567ffffffffffffffff8111156125da578182fd5b6125e68782880161247e565b91505092959194509250565b60008060408385031215612604578182fd5b61260d83612467565b915060208301358015158114612621578182fd5b809150509250929050565b6000806040838503121561263e578182fd5b61264783612467565b9150602083013567ffffffffffffffff811115612662578182fd5b61266e8582860161247e565b9150509250929050565b6000806040838503121561268a578182fd5b61269383612467565b946020939093013593505050565b6000602082840312156126b2578081fd5b813561108281612bb8565b6000602082840312156126ce578081fd5b815161108281612bb8565b6000602082840312156126ea578081fd5b813567ffffffffffffffff811115612700578182fd5b6112a38482850161247e565b600080600060608486031215612720578283fd5b833567ffffffffffffffff80821115612737578485fd5b6127438783880161247e565b94506020860135915080821115612758578384fd5b506127658682870161247e565b925050604084013590509250925092565b600060208284031215612787578081fd5b5035919050565b600081518084526127a6816020860160208601612ae0565b601f01601f19169290920160200192915050565b600081516127cc818560208601612ae0565b9290920192915050565b600082516127e8818460208701612ae0565b9190910192915050565b825460009081906002810460018083168061280e57607f831692505b602080841082141561282e57634e487b7160e01b87526022600452602487fd5b81801561284257600181146128535761287f565b60ff1986168952848901965061287f565b60008b815260209020885b868110156128775781548b82015290850190830161285e565b505084890196505b505050505050611cb381856127ba565b6001600160a01b03858116825284166020820152604081018390526080606082018190526000906128c29083018461278e565b9695505050505050565b600060208252611082602083018461278e565b60208082526032908201527f4552433732313a207472616e7366657220746f206e6f6e20455243373231526560408201527131b2b4bb32b91034b6b83632b6b2b73a32b960711b606082015260800190565b6020808252602c908201527f46756e6374696f6e206d7573742062652063616c6c6564207468726f7567682060408201526b19195b1959d85d1958d85b1b60a21b606082015260800190565b6020808252602c908201527f46756e6374696f6e206d7573742062652063616c6c6564207468726f7567682060408201526b6163746976652070726f787960a01b606082015260800190565b6020808252602e908201527f496e697469616c697a61626c653a20636f6e747261637420697320616c72656160408201526d191e481a5b9a5d1a585b1a5e995960921b606082015260800190565b6020808252818101527f4f776e61626c653a2063616c6c6572206973206e6f7420746865206f776e6572604082015260600190565b60208082526031908201527f4552433732313a207472616e736665722063616c6c6572206973206e6f74206f6040820152701ddb995c881b9bdc88185c1c1c9bdd9959607a1b606082015260800190565b60008219821115612ab057612ab0612b76565b500190565b600082612ac457612ac4612b8c565b500490565b600082821015612adb57612adb612b76565b500390565b60005b83811015612afb578181015183820152602001612ae3565b83811115610e1b5750506000910152565b600281046001821680612b2057607f821691505b60208210811415612b4157634e487b7160e01b600052602260045260246000fd5b50919050565b6000600019821415612b5b57612b5b612b76565b5060010190565b600082612b7157612b71612b8c565b500690565b634e487b7160e01b600052601160045260246000fd5b634e487b7160e01b600052601260045260246000fd5b634e487b7160e01b600052604160045260246000fd5b6001600160e01b0319811681146109c557600080fdfe416464726573733a206c6f772d6c6576656c2064656c65676174652063616c6c206661696c6564a26469706673582212202853b0601b5d6e46292c56f043cf655b4e1b4e6050ac8f6a51a701cc6436334a64736f6c63430008020033",
  "linkReferences": {},
  "deployedLinkReferences": {}
}